{
  "_format": "hh-sol-artifact-1",
  "contractName": "RunnerCollection",
  "sourceName": "contracts/RunnerCollection.sol",
  "abi": [
    {
      "inputs": [
        {
          "internalType": "string",
          "name": "_name",
          "type": "string"
        },
        {
          "internalType": "string",
          "name": "_symbol",
          "type": "string"
        },
        {
          "internalType": "string",
          "name": "_baseUri",
          "type": "string"
        }
      ],
      "stateMutability": "nonpayable",
      "type": "constructor"
    },
    {
      "anonymous": false,
      "inputs": [
        {
          "indexed": true,
          "internalType": "address",
          "name": "account",
          "type": "address"
        },
        {
          "indexed": true,
          "internalType": "address",
          "name": "operator",
          "type": "address"
        },
        {
          "indexed": false,
          "internalType": "bool",
          "name": "approved",
          "type": "bool"
        }
      ],
      "name": "ApprovalForAll",
      "type": "event"
    },
    {
      "anonymous": false,
      "inputs": [
        {
          "indexed": true,
          "internalType": "address",
          "name": "operator",
          "type": "address"
        },
        {
          "indexed": true,
          "internalType": "address",
          "name": "from",
          "type": "address"
        },
        {
          "indexed": true,
          "internalType": "address",
          "name": "to",
          "type": "address"
        },
        {
          "indexed": false,
          "internalType": "uint256[]",
          "name": "ids",
          "type": "uint256[]"
        },
        {
          "indexed": false,
          "internalType": "uint256[]",
          "name": "values",
          "type": "uint256[]"
        }
      ],
      "name": "TransferBatch",
      "type": "event"
    },
    {
      "anonymous": false,
      "inputs": [
        {
          "indexed": true,
          "internalType": "address",
          "name": "operator",
          "type": "address"
        },
        {
          "indexed": true,
          "internalType": "address",
          "name": "from",
          "type": "address"
        },
        {
          "indexed": true,
          "internalType": "address",
          "name": "to",
          "type": "address"
        },
        {
          "indexed": false,
          "internalType": "uint256",
          "name": "id",
          "type": "uint256"
        },
        {
          "indexed": false,
          "internalType": "uint256",
          "name": "value",
          "type": "uint256"
        }
      ],
      "name": "TransferSingle",
      "type": "event"
    },
    {
      "anonymous": false,
      "inputs": [
        {
          "indexed": false,
          "internalType": "string",
          "name": "value",
          "type": "string"
        },
        {
          "indexed": true,
          "internalType": "uint256",
          "name": "id",
          "type": "uint256"
        }
      ],
      "name": "URI",
      "type": "event"
    },
    {
      "inputs": [
        {
          "internalType": "address",
          "name": "account",
          "type": "address"
        },
        {
          "internalType": "uint256",
          "name": "id",
          "type": "uint256"
        }
      ],
      "name": "balanceOf",
      "outputs": [
        {
          "internalType": "uint256",
          "name": "",
          "type": "uint256"
        }
      ],
      "stateMutability": "view",
      "type": "function"
    },
    {
      "inputs": [
        {
          "internalType": "address[]",
          "name": "accounts",
          "type": "address[]"
        },
        {
          "internalType": "uint256[]",
          "name": "ids",
          "type": "uint256[]"
        }
      ],
      "name": "balanceOfBatch",
      "outputs": [
        {
          "internalType": "uint256[]",
          "name": "",
          "type": "uint256[]"
        }
      ],
      "stateMutability": "view",
      "type": "function"
    },
    {
      "inputs": [],
      "name": "baseUri",
      "outputs": [
        {
          "internalType": "string",
          "name": "",
          "type": "string"
        }
      ],
      "stateMutability": "view",
      "type": "function"
    },
    {
      "inputs": [
        {
          "internalType": "address",
          "name": "account",
          "type": "address"
        },
        {
          "internalType": "address",
          "name": "operator",
          "type": "address"
        }
      ],
      "name": "isApprovedForAll",
      "outputs": [
        {
          "internalType": "bool",
          "name": "",
          "type": "bool"
        }
      ],
      "stateMutability": "view",
      "type": "function"
    },
    {
      "inputs": [
        {
          "internalType": "uint256",
          "name": "amount",
          "type": "uint256"
        }
      ],
      "name": "mint",
      "outputs": [],
      "stateMutability": "nonpayable",
      "type": "function"
    },
    {
      "inputs": [],
      "name": "name",
      "outputs": [
        {
          "internalType": "string",
          "name": "",
          "type": "string"
        }
      ],
      "stateMutability": "view",
      "type": "function"
    },
    {
      "inputs": [
        {
          "internalType": "address",
          "name": "from",
          "type": "address"
        },
        {
          "internalType": "address",
          "name": "to",
          "type": "address"
        },
        {
          "internalType": "uint256[]",
          "name": "ids",
          "type": "uint256[]"
        },
        {
          "internalType": "uint256[]",
          "name": "amounts",
          "type": "uint256[]"
        },
        {
          "internalType": "bytes",
          "name": "data",
          "type": "bytes"
        }
      ],
      "name": "safeBatchTransferFrom",
      "outputs": [],
      "stateMutability": "nonpayable",
      "type": "function"
    },
    {
      "inputs": [
        {
          "internalType": "address",
          "name": "from",
          "type": "address"
        },
        {
          "internalType": "address",
          "name": "to",
          "type": "address"
        },
        {
          "internalType": "uint256",
          "name": "id",
          "type": "uint256"
        },
        {
          "internalType": "uint256",
          "name": "amount",
          "type": "uint256"
        },
        {
          "internalType": "bytes",
          "name": "data",
          "type": "bytes"
        }
      ],
      "name": "safeTransferFrom",
      "outputs": [],
      "stateMutability": "nonpayable",
      "type": "function"
    },
    {
      "inputs": [
        {
          "internalType": "address",
          "name": "operator",
          "type": "address"
        },
        {
          "internalType": "bool",
          "name": "approved",
          "type": "bool"
        }
      ],
      "name": "setApprovalForAll",
      "outputs": [],
      "stateMutability": "nonpayable",
      "type": "function"
    },
    {
      "inputs": [
        {
          "internalType": "bytes4",
          "name": "interfaceId",
          "type": "bytes4"
        }
      ],
      "name": "supportsInterface",
      "outputs": [
        {
          "internalType": "bool",
          "name": "",
          "type": "bool"
        }
      ],
      "stateMutability": "view",
      "type": "function"
    },
    {
      "inputs": [],
      "name": "symbol",
      "outputs": [
        {
          "internalType": "string",
          "name": "",
          "type": "string"
        }
      ],
      "stateMutability": "view",
      "type": "function"
    },
    {
      "inputs": [],
      "name": "tokenCount",
      "outputs": [
        {
          "internalType": "uint256",
          "name": "",
          "type": "uint256"
        }
      ],
      "stateMutability": "view",
      "type": "function"
    },
    {
      "inputs": [
        {
          "internalType": "uint256",
          "name": "_tokenId",
          "type": "uint256"
        }
      ],
      "name": "uri",
      "outputs": [
        {
          "internalType": "string",
          "name": "",
          "type": "string"
        }
      ],
      "stateMutability": "view",
      "type": "function"
    }
  ],
  "bytecode": "0x60806040523480156200001157600080fd5b5060405162003299380380620032998339818101604052810190620000379190620001dc565b8062000049816200009e60201b60201c565b50826003908051906020019062000062929190620000ba565b5081600490805190602001906200007b929190620000ba565b50806006908051906020019062000094929190620000ba565b50505050620003ed565b8060029080519060200190620000b6929190620000ba565b5050565b828054620000c89062000312565b90600052602060002090601f016020900481019282620000ec576000855562000138565b82601f106200010757805160ff191683800117855562000138565b8280016001018555821562000138579182015b82811115620001375782518255916020019190600101906200011a565b5b5090506200014791906200014b565b5090565b5b80821115620001665760008160009055506001016200014c565b5090565b6000620001816200017b84620002a6565b6200027d565b9050828152602081018484840111156200019a57600080fd5b620001a7848285620002dc565b509392505050565b600082601f830112620001c157600080fd5b8151620001d38482602086016200016a565b91505092915050565b600080600060608486031215620001f257600080fd5b600084015167ffffffffffffffff8111156200020d57600080fd5b6200021b86828701620001af565b935050602084015167ffffffffffffffff8111156200023957600080fd5b6200024786828701620001af565b925050604084015167ffffffffffffffff8111156200026557600080fd5b6200027386828701620001af565b9150509250925092565b6000620002896200029c565b905062000297828262000348565b919050565b6000604051905090565b600067ffffffffffffffff821115620002c457620002c3620003ad565b5b620002cf82620003dc565b9050602081019050919050565b60005b83811015620002fc578082015181840152602081019050620002df565b838111156200030c576000848401525b50505050565b600060028204905060018216806200032b57607f821691505b602082108114156200034257620003416200037e565b5b50919050565b6200035382620003dc565b810181811067ffffffffffffffff82111715620003755762000374620003ad565b5b80604052505050565b7f4e487b7100000000000000000000000000000000000000000000000000000000600052602260045260246000fd5b7f4e487b7100000000000000000000000000000000000000000000000000000000600052604160045260246000fd5b6000601f19601f8301169050919050565b612e9c80620003fd6000396000f3fe608060405234801561001057600080fd5b50600436106100ce5760003560e01c806395d89b411161008c578063a0712d6811610066578063a0712d6814610227578063a22cb46514610243578063e985e9c51461025f578063f242432a1461028f576100ce565b806395d89b41146101cd5780639abc8320146101eb5780639f181b5e14610209576100ce565b8062fdd58e146100d357806301ffc9a71461010357806306fdde03146101335780630e89341c146101515780632eb2c2d6146101815780634e1273f41461019d575b600080fd5b6100ed60048036038101906100e89190611d97565b6102ab565b6040516100fa9190612519565b60405180910390f35b61011d60048036038101906101189190611e3f565b610374565b60405161012a919061237c565b60405180910390f35b61013b610456565b6040516101489190612397565b60405180910390f35b61016b60048036038101906101669190611e91565b6104e4565b6040516101789190612397565b60405180910390f35b61019b60048036038101906101969190611c0d565b610518565b005b6101b760048036038101906101b29190611dd3565b6105b9565b6040516101c49190612323565b60405180910390f35b6101d561076a565b6040516101e29190612397565b60405180910390f35b6101f36107f8565b6040516102009190612397565b60405180910390f35b610211610886565b60405161021e9190612519565b60405180910390f35b610241600480360381019061023c9190611e91565b61088c565b005b61025d60048036038101906102589190611d5b565b6108c6565b005b61027960048036038101906102749190611bd1565b6108dc565b604051610286919061237c565b60405180910390f35b6102a960048036038101906102a49190611ccc565b610970565b005b60008073ffffffffffffffffffffffffffffffffffffffff168373ffffffffffffffffffffffffffffffffffffffff16141561031c576040517f08c379a0000000000000000000000000000000000000000000000000000000008152600401610313906123f9565b60405180910390fd5b60008083815260200190815260200160002060008473ffffffffffffffffffffffffffffffffffffffff1673ffffffffffffffffffffffffffffffffffffffff16815260200190815260200160002054905092915050565b60007fd9b67a26000000000000000000000000000000000000000000000000000000007bffffffffffffffffffffffffffffffffffffffffffffffffffffffff1916827bffffffffffffffffffffffffffffffffffffffffffffffffffffffff1916148061043f57507f0e89341c000000000000000000000000000000000000000000000000000000007bffffffffffffffffffffffffffffffffffffffffffffffffffffffff1916827bffffffffffffffffffffffffffffffffffffffffffffffffffffffff1916145b8061044f575061044e82610a11565b5b9050919050565b600380546104639061280d565b80601f016020809104026020016040519081016040528092919081815260200182805461048f9061280d565b80156104dc5780601f106104b1576101008083540402835291602001916104dc565b820191906000526020600020905b8154815290600101906020018083116104bf57829003601f168201915b505050505081565b606060066104f183610a7b565b604051602001610502929190612232565b6040516020818303038152906040529050919050565b610520610c28565b73ffffffffffffffffffffffffffffffffffffffff168573ffffffffffffffffffffffffffffffffffffffff161480610566575061056585610560610c28565b6108dc565b5b6105a5576040517f08c379a000000000000000000000000000000000000000000000000000000000815260040161059c90612459565b60405180910390fd5b6105b28585858585610c30565b5050505050565b606081518351146105ff576040517f08c379a00000000000000000000000000000000000000000000000000000000081526004016105f6906124b9565b60405180910390fd5b6000835167ffffffffffffffff811115610642577f4e487b7100000000000000000000000000000000000000000000000000000000600052604160045260246000fd5b6040519080825280602002602001820160405280156106705781602001602082028036833780820191505090505b50905060005b845181101561075f576107098582815181106106bb577f4e487b7100000000000000000000000000000000000000000000000000000000600052603260045260246000fd5b60200260200101518583815181106106fc577f4e487b7100000000000000000000000000000000000000000000000000000000600052603260045260246000fd5b60200260200101516102ab565b828281518110610742577f4e487b7100000000000000000000000000000000000000000000000000000000600052603260045260246000fd5b6020026020010181815250508061075890612870565b9050610676565b508091505092915050565b600480546107779061280d565b80601f01602080910402602001604051908101604052809291908181526020018280546107a39061280d565b80156107f05780601f106107c5576101008083540402835291602001916107f0565b820191906000526020600020905b8154815290600101906020018083116107d357829003601f168201915b505050505081565b600680546108059061280d565b80601f01602080910402602001604051908101604052809291908181526020018280546108319061280d565b801561087e5780601f106108535761010080835404028352916020019161087e565b820191906000526020600020905b81548152906001019060200180831161086157829003601f168201915b505050505081565b60055481565b60016005600082825461089f919061269c565b925050819055506108c3336005548360405180602001604052806000815250610f90565b50565b6108d86108d1610c28565b8383611126565b5050565b6000600160008473ffffffffffffffffffffffffffffffffffffffff1673ffffffffffffffffffffffffffffffffffffffff16815260200190815260200160002060008373ffffffffffffffffffffffffffffffffffffffff1673ffffffffffffffffffffffffffffffffffffffff16815260200190815260200160002060009054906101000a900460ff16905092915050565b610978610c28565b73ffffffffffffffffffffffffffffffffffffffff168573ffffffffffffffffffffffffffffffffffffffff1614806109be57506109bd856109b8610c28565b6108dc565b5b6109fd576040517f08c379a00000000000000000000000000000000000000000000000000000000081526004016109f490612419565b60405180910390fd5b610a0a8585858585611293565b5050505050565b60007f01ffc9a7000000000000000000000000000000000000000000000000000000007bffffffffffffffffffffffffffffffffffffffffffffffffffffffff1916827bffffffffffffffffffffffffffffffffffffffffffffffffffffffff1916149050919050565b60606000821415610ac3576040518060400160405280600181526020017f30000000000000000000000000000000000000000000000000000000000000008152509050610c23565b600082905060005b60008214610af5578080610ade90612870565b915050600a82610aee91906126f2565b9150610acb565b60008167ffffffffffffffff811115610b37577f4e487b7100000000000000000000000000000000000000000000000000000000600052604160045260246000fd5b6040519080825280601f01601f191660200182016040528015610b695781602001600182028036833780820191505090505b5090505b60008514610c1c57600182610b829190612723565b9150600a85610b9191906128b9565b6030610b9d919061269c565b60f81b818381518110610bd9577f4e487b7100000000000000000000000000000000000000000000000000000000600052603260045260246000fd5b60200101907effffffffffffffffffffffffffffffffffffffffffffffffffffffffffffff1916908160001a905350600a85610c1591906126f2565b9450610b6d565b8093505050505b919050565b600033905090565b8151835114610c74576040517f08c379a0000000000000000000000000000000000000000000000000000000008152600401610c6b906124d9565b60405180910390fd5b600073ffffffffffffffffffffffffffffffffffffffff168473ffffffffffffffffffffffffffffffffffffffff161415610ce4576040517f08c379a0000000000000000000000000000000000000000000000000000000008152600401610cdb90612439565b60405180910390fd5b6000610cee610c28565b9050610cfe818787878787611515565b60005b8451811015610efb576000858281518110610d45577f4e487b7100000000000000000000000000000000000000000000000000000000600052603260045260246000fd5b602002602001015190506000858381518110610d8a577f4e487b7100000000000000000000000000000000000000000000000000000000600052603260045260246000fd5b60200260200101519050600080600084815260200190815260200160002060008b73ffffffffffffffffffffffffffffffffffffffff1673ffffffffffffffffffffffffffffffffffffffff16815260200190815260200160002054905081811015610e2b576040517f08c379a0000000000000000000000000000000000000000000000000000000008152600401610e2290612479565b60405180910390fd5b81810360008085815260200190815260200160002060008c73ffffffffffffffffffffffffffffffffffffffff1673ffffffffffffffffffffffffffffffffffffffff168152602001908152602001600020819055508160008085815260200190815260200160002060008b73ffffffffffffffffffffffffffffffffffffffff1673ffffffffffffffffffffffffffffffffffffffff1681526020019081526020016000206000828254610ee0919061269c565b9250508190555050505080610ef490612870565b9050610d01565b508473ffffffffffffffffffffffffffffffffffffffff168673ffffffffffffffffffffffffffffffffffffffff168273ffffffffffffffffffffffffffffffffffffffff167f4a39dc06d4c0dbc64b70af90fd698a233a518aa5d07e595d983b8c0526c8f7fb8787604051610f72929190612345565b60405180910390a4610f8881878787878761151d565b505050505050565b600073ffffffffffffffffffffffffffffffffffffffff168473ffffffffffffffffffffffffffffffffffffffff161415611000576040517f08c379a0000000000000000000000000000000000000000000000000000000008152600401610ff7906124f9565b60405180910390fd5b600061100a610c28565b905061102b8160008761101c88611704565b61102588611704565b87611515565b8260008086815260200190815260200160002060008773ffffffffffffffffffffffffffffffffffffffff1673ffffffffffffffffffffffffffffffffffffffff168152602001908152602001600020600082825461108a919061269c565b925050819055508473ffffffffffffffffffffffffffffffffffffffff16600073ffffffffffffffffffffffffffffffffffffffff168273ffffffffffffffffffffffffffffffffffffffff167fc3d58168c5ae7397731d063d5bbf3d657854427343f4c083240f7aacaa2d0f628787604051611108929190612534565b60405180910390a461111f816000878787876117ca565b5050505050565b8173ffffffffffffffffffffffffffffffffffffffff168373ffffffffffffffffffffffffffffffffffffffff161415611195576040517f08c379a000000000000000000000000000000000000000000000000000000000815260040161118c90612499565b60405180910390fd5b80600160008573ffffffffffffffffffffffffffffffffffffffff1673ffffffffffffffffffffffffffffffffffffffff16815260200190815260200160002060008473ffffffffffffffffffffffffffffffffffffffff1673ffffffffffffffffffffffffffffffffffffffff16815260200190815260200160002060006101000a81548160ff0219169083151502179055508173ffffffffffffffffffffffffffffffffffffffff168373ffffffffffffffffffffffffffffffffffffffff167f17307eab39ab6107e8899845ad3d59bd9653f200f220920489ca2b5937696c3183604051611286919061237c565b60405180910390a3505050565b600073ffffffffffffffffffffffffffffffffffffffff168473ffffffffffffffffffffffffffffffffffffffff161415611303576040517f08c379a00000000000000000000000000000000000000000000000000000000081526004016112fa90612439565b60405180910390fd5b600061130d610c28565b905061132d81878761131e88611704565b61132788611704565b87611515565b600080600086815260200190815260200160002060008873ffffffffffffffffffffffffffffffffffffffff1673ffffffffffffffffffffffffffffffffffffffff168152602001908152602001600020549050838110156113c4576040517f08c379a00000000000000000000000000000000000000000000000000000000081526004016113bb90612479565b60405180910390fd5b83810360008087815260200190815260200160002060008973ffffffffffffffffffffffffffffffffffffffff1673ffffffffffffffffffffffffffffffffffffffff168152602001908152602001600020819055508360008087815260200190815260200160002060008873ffffffffffffffffffffffffffffffffffffffff1673ffffffffffffffffffffffffffffffffffffffff1681526020019081526020016000206000828254611479919061269c565b925050819055508573ffffffffffffffffffffffffffffffffffffffff168773ffffffffffffffffffffffffffffffffffffffff168373ffffffffffffffffffffffffffffffffffffffff167fc3d58168c5ae7397731d063d5bbf3d657854427343f4c083240f7aacaa2d0f6288886040516114f6929190612534565b60405180910390a461150c8288888888886117ca565b50505050505050565b505050505050565b61153c8473ffffffffffffffffffffffffffffffffffffffff166119b1565b156116fc578373ffffffffffffffffffffffffffffffffffffffff1663bc197c8187878686866040518663ffffffff1660e01b8152600401611582959493929190612261565b602060405180830381600087803b15801561159c57600080fd5b505af19250505080156115cd57506040513d601f19601f820116820180604052508101906115ca9190611e68565b60015b611673576115d96129a6565b806308c379a0141561163657506115ee612d74565b806115f95750611638565b806040517f08c379a000000000000000000000000000000000000000000000000000000000815260040161162d9190612397565b60405180910390fd5b505b6040517f08c379a000000000000000000000000000000000000000000000000000000000815260040161166a906123b9565b60405180910390fd5b63bc197c8160e01b7bffffffffffffffffffffffffffffffffffffffffffffffffffffffff1916817bffffffffffffffffffffffffffffffffffffffffffffffffffffffff1916146116fa576040517f08c379a00000000000000000000000000000000000000000000000000000000081526004016116f1906123d9565b60405180910390fd5b505b505050505050565b60606000600167ffffffffffffffff811115611749577f4e487b7100000000000000000000000000000000000000000000000000000000600052604160045260246000fd5b6040519080825280602002602001820160405280156117775781602001602082028036833780820191505090505b50905082816000815181106117b5577f4e487b7100000000000000000000000000000000000000000000000000000000600052603260045260246000fd5b60200260200101818152505080915050919050565b6117e98473ffffffffffffffffffffffffffffffffffffffff166119b1565b156119a9578373ffffffffffffffffffffffffffffffffffffffff1663f23a6e6187878686866040518663ffffffff1660e01b815260040161182f9594939291906122c9565b602060405180830381600087803b15801561184957600080fd5b505af192505050801561187a57506040513d601f19601f820116820180604052508101906118779190611e68565b60015b611920576118866129a6565b806308c379a014156118e3575061189b612d74565b806118a657506118e5565b806040517f08c379a00000000000000000000000000000000000000000000000000000000081526004016118da9190612397565b60405180910390fd5b505b6040517f08c379a0000000000000000000000000000000000000000000000000000000008152600401611917906123b9565b60405180910390fd5b63f23a6e6160e01b7bffffffffffffffffffffffffffffffffffffffffffffffffffffffff1916817bffffffffffffffffffffffffffffffffffffffffffffffffffffffff1916146119a7576040517f08c379a000000000000000000000000000000000000000000000000000000000815260040161199e906123d9565b60405180910390fd5b505b505050505050565b6000808273ffffffffffffffffffffffffffffffffffffffff163b119050919050565b60006119e76119e284612582565b61255d565b90508083825260208201905082856020860282011115611a0657600080fd5b60005b85811015611a365781611a1c8882611aea565b845260208401935060208301925050600181019050611a09565b5050509392505050565b6000611a53611a4e846125ae565b61255d565b90508083825260208201905082856020860282011115611a7257600080fd5b60005b85811015611aa25781611a888882611bbc565b845260208401935060208301925050600181019050611a75565b5050509392505050565b6000611abf611aba846125da565b61255d565b905082815260208101848484011115611ad757600080fd5b611ae28482856127cb565b509392505050565b600081359050611af981612e0a565b92915050565b600082601f830112611b1057600080fd5b8135611b208482602086016119d4565b91505092915050565b600082601f830112611b3a57600080fd5b8135611b4a848260208601611a40565b91505092915050565b600081359050611b6281612e21565b92915050565b600081359050611b7781612e38565b92915050565b600081519050611b8c81612e38565b92915050565b600082601f830112611ba357600080fd5b8135611bb3848260208601611aac565b91505092915050565b600081359050611bcb81612e4f565b92915050565b60008060408385031215611be457600080fd5b6000611bf285828601611aea565b9250506020611c0385828601611aea565b9150509250929050565b600080600080600060a08688031215611c2557600080fd5b6000611c3388828901611aea565b9550506020611c4488828901611aea565b945050604086013567ffffffffffffffff811115611c6157600080fd5b611c6d88828901611b29565b935050606086013567ffffffffffffffff811115611c8a57600080fd5b611c9688828901611b29565b925050608086013567ffffffffffffffff811115611cb357600080fd5b611cbf88828901611b92565b9150509295509295909350565b600080600080600060a08688031215611ce457600080fd5b6000611cf288828901611aea565b9550506020611d0388828901611aea565b9450506040611d1488828901611bbc565b9350506060611d2588828901611bbc565b925050608086013567ffffffffffffffff811115611d4257600080fd5b611d4e88828901611b92565b9150509295509295909350565b60008060408385031215611d6e57600080fd5b6000611d7c85828601611aea565b9250506020611d8d85828601611b53565b9150509250929050565b60008060408385031215611daa57600080fd5b6000611db885828601611aea565b9250506020611dc985828601611bbc565b9150509250929050565b60008060408385031215611de657600080fd5b600083013567ffffffffffffffff811115611e0057600080fd5b611e0c85828601611aff565b925050602083013567ffffffffffffffff811115611e2957600080fd5b611e3585828601611b29565b9150509250929050565b600060208284031215611e5157600080fd5b6000611e5f84828501611b68565b91505092915050565b600060208284031215611e7a57600080fd5b6000611e8884828501611b7d565b91505092915050565b600060208284031215611ea357600080fd5b6000611eb184828501611bbc565b91505092915050565b6000611ec68383612214565b60208301905092915050565b611edb81612757565b82525050565b6000611eec82612630565b611ef6818561265e565b9350611f018361260b565b8060005b83811015611f32578151611f198882611eba565b9750611f2483612651565b925050600181019050611f05565b5085935050505092915050565b611f4881612769565b82525050565b6000611f598261263b565b611f63818561266f565b9350611f738185602086016127da565b611f7c816129c8565b840191505092915050565b6000611f9282612646565b611f9c8185612680565b9350611fac8185602086016127da565b611fb5816129c8565b840191505092915050565b6000611fcb82612646565b611fd58185612691565b9350611fe58185602086016127da565b80840191505092915050565b60008154611ffe8161280d565b6120088186612691565b94506001821660008114612023576001811461203457612067565b60ff19831686528186019350612067565b61203d8561261b565b60005b8381101561205f57815481890152600182019150602081019050612040565b838801955050505b50505092915050565b600061207d603483612680565b9150612088826129e6565b604082019050919050565b60006120a0602883612680565b91506120ab82612a35565b604082019050919050565b60006120c3602b83612680565b91506120ce82612a84565b604082019050919050565b60006120e6602983612680565b91506120f182612ad3565b604082019050919050565b6000612109602583612680565b915061211482612b22565b604082019050919050565b600061212c603283612680565b915061213782612b71565b604082019050919050565b600061214f602a83612680565b915061215a82612bc0565b604082019050919050565b6000612172600583612691565b915061217d82612c0f565b600582019050919050565b6000612195602983612680565b91506121a082612c38565b604082019050919050565b60006121b8602983612680565b91506121c382612c87565b604082019050919050565b60006121db602883612680565b91506121e682612cd6565b604082019050919050565b60006121fe602183612680565b915061220982612d25565b604082019050919050565b61221d816127c1565b82525050565b61222c816127c1565b82525050565b600061223e8285611ff1565b915061224a8284611fc0565b915061225582612165565b91508190509392505050565b600060a0820190506122766000830188611ed2565b6122836020830187611ed2565b81810360408301526122958186611ee1565b905081810360608301526122a98185611ee1565b905081810360808301526122bd8184611f4e565b90509695505050505050565b600060a0820190506122de6000830188611ed2565b6122eb6020830187611ed2565b6122f86040830186612223565b6123056060830185612223565b81810360808301526123178184611f4e565b90509695505050505050565b6000602082019050818103600083015261233d8184611ee1565b905092915050565b6000604082019050818103600083015261235f8185611ee1565b905081810360208301526123738184611ee1565b90509392505050565b60006020820190506123916000830184611f3f565b92915050565b600060208201905081810360008301526123b18184611f87565b905092915050565b600060208201905081810360008301526123d281612070565b9050919050565b600060208201905081810360008301526123f281612093565b9050919050565b60006020820190508181036000830152612412816120b6565b9050919050565b60006020820190508181036000830152612432816120d9565b9050919050565b60006020820190508181036000830152612452816120fc565b9050919050565b600060208201905081810360008301526124728161211f565b9050919050565b6000602082019050818103600083015261249281612142565b9050919050565b600060208201905081810360008301526124b281612188565b9050919050565b600060208201905081810360008301526124d2816121ab565b9050919050565b600060208201905081810360008301526124f2816121ce565b9050919050565b60006020820190508181036000830152612512816121f1565b9050919050565b600060208201905061252e6000830184612223565b92915050565b60006040820190506125496000830185612223565b6125566020830184612223565b9392505050565b6000612567612578565b9050612573828261283f565b919050565b6000604051905090565b600067ffffffffffffffff82111561259d5761259c612977565b5b602082029050602081019050919050565b600067ffffffffffffffff8211156125c9576125c8612977565b5b602082029050602081019050919050565b600067ffffffffffffffff8211156125f5576125f4612977565b5b6125fe826129c8565b9050602081019050919050565b6000819050602082019050919050565b60008190508160005260206000209050919050565b600081519050919050565b600081519050919050565b600081519050919050565b6000602082019050919050565b600082825260208201905092915050565b600082825260208201905092915050565b600082825260208201905092915050565b600081905092915050565b60006126a7826127c1565b91506126b2836127c1565b9250827fffffffffffffffffffffffffffffffffffffffffffffffffffffffffffffffff038211156126e7576126e66128ea565b5b828201905092915050565b60006126fd826127c1565b9150612708836127c1565b92508261271857612717612919565b5b828204905092915050565b600061272e826127c1565b9150612739836127c1565b92508282101561274c5761274b6128ea565b5b828203905092915050565b6000612762826127a1565b9050919050565b60008115159050919050565b60007fffffffff0000000000000000000000000000000000000000000000000000000082169050919050565b600073ffffffffffffffffffffffffffffffffffffffff82169050919050565b6000819050919050565b82818337600083830152505050565b60005b838110156127f85780820151818401526020810190506127dd565b83811115612807576000848401525b50505050565b6000600282049050600182168061282557607f821691505b6020821081141561283957612838612948565b5b50919050565b612848826129c8565b810181811067ffffffffffffffff8211171561286757612866612977565b5b80604052505050565b600061287b826127c1565b91507fffffffffffffffffffffffffffffffffffffffffffffffffffffffffffffffff8214156128ae576128ad6128ea565b5b600182019050919050565b60006128c4826127c1565b91506128cf836127c1565b9250826128df576128de612919565b5b828206905092915050565b7f4e487b7100000000000000000000000000000000000000000000000000000000600052601160045260246000fd5b7f4e487b7100000000000000000000000000000000000000000000000000000000600052601260045260246000fd5b7f4e487b7100000000000000000000000000000000000000000000000000000000600052602260045260246000fd5b7f4e487b7100000000000000000000000000000000000000000000000000000000600052604160045260246000fd5b600060033d11156129c55760046000803e6129c26000516129d9565b90505b90565b6000601f19601f8301169050919050565b60008160e01c9050919050565b7f455243313135353a207472616e7366657220746f206e6f6e204552433131353560008201527f526563656976657220696d706c656d656e746572000000000000000000000000602082015250565b7f455243313135353a204552433131353552656365697665722072656a6563746560008201527f6420746f6b656e73000000000000000000000000000000000000000000000000602082015250565b7f455243313135353a2062616c616e636520717565727920666f7220746865207a60008201527f65726f2061646472657373000000000000000000000000000000000000000000602082015250565b7f455243313135353a2063616c6c6572206973206e6f74206f776e6572206e6f7260008201527f20617070726f7665640000000000000000000000000000000000000000000000602082015250565b7f455243313135353a207472616e7366657220746f20746865207a65726f20616460008201527f6472657373000000000000000000000000000000000000000000000000000000602082015250565b7f455243313135353a207472616e736665722063616c6c6572206973206e6f742060008201527f6f776e6572206e6f7220617070726f7665640000000000000000000000000000602082015250565b7f455243313135353a20696e73756666696369656e742062616c616e636520666f60008201527f72207472616e7366657200000000000000000000000000000000000000000000602082015250565b7f2e6a736f6e000000000000000000000000000000000000000000000000000000600082015250565b7f455243313135353a2073657474696e6720617070726f76616c2073746174757360008201527f20666f722073656c660000000000000000000000000000000000000000000000602082015250565b7f455243313135353a206163636f756e747320616e6420696473206c656e67746860008201527f206d69736d617463680000000000000000000000000000000000000000000000602082015250565b7f455243313135353a2069647320616e6420616d6f756e7473206c656e6774682060008201527f6d69736d61746368000000000000000000000000000000000000000000000000602082015250565b7f455243313135353a206d696e7420746f20746865207a65726f2061646472657360008201527f7300000000000000000000000000000000000000000000000000000000000000602082015250565b600060443d1015612d8457612e07565b612d8c612578565b60043d036004823e80513d602482011167ffffffffffffffff82111715612db4575050612e07565b808201805167ffffffffffffffff811115612dd25750505050612e07565b80602083010160043d038501811115612def575050505050612e07565b612dfe8260200185018661283f565b82955050505050505b90565b612e1381612757565b8114612e1e57600080fd5b50565b612e2a81612769565b8114612e3557600080fd5b50565b612e4181612775565b8114612e4c57600080fd5b50565b612e58816127c1565b8114612e6357600080fd5b5056fea264697066735822122086446ac7264a46ce00af6911800c60e54e4fa51ef0977975bf3fb2833695c57464736f6c63430008040033",
  "linkReferences": {},
  "deployedLinkReferences": {}
}